:100B6200456E7465722070617373776F72643A00B8
:100B7200426F6D6220686173006265656E20706C01
:100B8200616E746564002A4572726F72212A0000D8
:100B9200000000000000000000000000000007004C
:0B0BA20003000500050006000000082D
:10073000E4F508F509F50AF50BF50CF50DF50EF5E0
:100740000FF510F51178127C00FD7BFF7A0B799183
:10075000FE7F0E12045978207C007D007BFF7A0B0F
:10076000799F7E007F0E120459120D177BFF7A0BC2
:1007700079627D017F01120C8B1208BD8E088F09F2
:10078000D3E50B9406E50A94005062E509640A4536
:1007900008605AE509940AE50894005050AF0BEF41
:1007A00025E02412F8A60808A609EF25E02412F88F
:1007B000E6FA08E6FB640A4A6033E50B04FD753A85
:1007C000017F02120CCC050BE50B7002050AE4F563
:1007D00010F511B2A57F017E00120CE90511E5119B
:1007E00070020510D39432E510940040E6E50964E8
:1007F0000C45087025F50EF50FE50F25E02412F8DD
:10080000E4F608F6050FE50F7002050E6407450EC5
:1008100070E7E4F50AF50B120D17E509640B4508BE
:10082000600302076CF510F511F50AF50BF50CF5F0
:100830000DF50EF50FAF0FEF25E02420F8E6FC08CC
:10084000E6FDEF25E02412F8E6FE08E6B5050CEE1D
:10085000B504080511E51170020510050FE50F70CC
:1008600002050E6407450E70CC120D17E5116407E2
:100870004510702A7BFF7A0B79727D017F01120C83
:100880008B7BFF7A0B797B7D017F02120C8B7FD0F3
:100890007E07120CE9E4FFFE12000302076C7BFFE7
:1008A0007A0B79887D017F01120C8B7FD07E071235
:0D08B0000CE9E4F50AF50B120D1702076CB8
:040CE900EF4E601357
:100CED007538027539EFD539FDD538FAEF1F70EC2F
:010CFD001ED8
:030CFE0080E92268
:060D2B00C2A58F80D2A7D3
:080D31007F027EEFDEFEDFFC15
:010D39002297
:0A0D4600C2A6120D2BC2A7020D3148
:100CAE00CFCDCFCECCCE1204BE7C007D0A1204BEB8
:040CBE00ED2430FFF2
:0A0CC200D2A6120D2BC2A7020D31BD
:100D0100AE07BE0104ED148006BE0209ED243F4486
:060D110080FF120D4622D6
:100D17007F38120D467F0C120D467F06120D467F57
:040D270001020D4672
:0A0D5000AC03120D01AF04020CC247
:060C8B008B388A39893A1A
:100C9100120D01E4FDAB38AA39A93A8D82758300A2
:0C0CA10012047FFF6006120CC20D80E9F7
:010CAD002224
:0C0C58007F0AEA24FFFDE434FFFC7E006C
:080C64008E3B8F3C8C3D8D3E60
:100C6C007F017E00E4FBEBC3953EE53D6480F874A8
:0E0C7C008098500AAC3BAD3C1204AC0B80E8F3
:010C8A002247
:040CCC008A388B399E
:100CD000120D01AA3AEAD39400400D120C58AC3818
:080CE000AD39120CAE1A80EDD3
:010CE80022E9
:100BAD00120D01C3EA64809480400B7F2B120CC29E
:100BBD008A448B45800E7F2D120CC2C3E49BF545F4
:100BCD00E49AF544AA43EAD39400400D120C58ACB4
:090BDD0044AD45120CAE1A80ED86
:010BE60022EC
:040BE7008A488B4964
:100BEB00120D01AA4AEAD3940040297F10120C5A25
:100BFB00AC48AD49CFCDCFCECCCE1204BEEF540F07
:100C0B00FEC3940AEE5004243080022437FF120CEA
:040C1B00C21A80D1A8
:010C1F0022B2
:040C20008A4D8B4E20
:100C2400120D01AA4FEAD394004028EA24FFFDE400
:100C340034FFFC7F027E00120C64AC4DAD4ECFCD70
:100C4400CFCECCCE1204BEEF54012430FF120CC21E
:030C54001A80D231
:010C5700227A
:1008BD00752E00752F0A7590FFC2932095177F1422
:1008CD007E00120CE93095FD7F147E00120CE97547
:1008DD002E00752F092096177F147E00120CE9301B
:1008ED0096FD7F147E00120CE9752E00752F0520E4
:1008FD0097177F147E00120CE93097FD7F147E0050
:10090D00120CE9752E00752F017590FFC29220957E
:10091D00167F147E00120CE93095FD7F147E0012B7
:10092D000CE9E4F52EF52F2096177F147E00120C9E
:10093D00E93096FD7F147E00120CE9752E00752F9F
:10094D00062097177F147E00120CE93097FD7F1457
:10095D007E00120CE9752E00752F027590FFC29165
:10096D002095177F147E00120CE93095FD7F147EC3
:10097D0000120CE9752E00752F0B2096177F147E33
:10098D0000120CE93096FD7F147E00120CE9752ED5
:10099D0000752F072097177F147E00120CE93097F2
:1009AD00FD7F147E00120CE9752E00752F037590D6
:1009BD00FFC2902095177F147E00120CE93095FD33
:1009CD007F147E00120CE9752E00752F0C209617E2
:1009DD007F147E00120CE93096FD7F147E00120C00
:1009ED00E9752E00752F082097177F147E00120CC5
:1009FD00E93097FD7F147E00120CE9752E00752FDE
:050A0D0004AE2EAF2F26
:010A120022C1
:100B1100426F6D62206578706C6F64657300616609
:100B2100746572007300426F6D62206578706C6F3E
:100B310064656400546572726F72697374732057CF
:100B4100696E00426F6D6220686173206265656E37
:100B5100006465667573656400436F756E746572D4
:010B61000093
:040003008E2E8F2F7F
:10000700E4F530F531F532F533F534F535120D17E2
:100017007BFF7A0B79117D017F01120C8B7BFF7AB5
:100027000B791F7D017F02120C8B7BFF7A0B7925E1
:100037007D0F7F02120C8BC3E52E94005003020341
:1000470088AE2EAF2F7C037DE81204BED3EF940E4B
:10005700EE94005046C374289FFBE49EFA753A025B
:100067007D0D7F02120CCCE4F530F531B2A57F018E
:100077007E00120CE90531E53170020530C3946446
:10008700E5306480948040E47F847E03120CE97439
:10009700E8252FF52F7403352EF52EAE2EAF2F7CC6
:1000A700037DE81204BED3740F9FE49E4003020150
:1000B70036EF9417EE94005076C374289FFBE49EA6
:1000C700FA753A027D0D7F02120CCCE4F530F5315A
:1000D700B2A57F017E00120CE90531E531700205FA
:1000E70030C39464E5306480948040E47F907E015F
:1000F700120CE90533E53370020532AE32FF7C009E
:100107007D02120513ED4C7026E5334532602074ED
:10011700E8252FF52F7403352EF52EFEAF2F7C0320
:100127007DE81204BEEF64184E7004F532F533AE65
:100137002EAF2F7C037DE81204BED374189FE49E74
:1001470040030201CAEF941DEE94005076C3742851
:100157009FFBE49EFA753A027D0D7F02120CCCE4F8
:10016700F530F531B2A57F017E00120CE90531E5C6
:100177003170020530C39464E5306480948040E4B4
:100187007F967E00120CE90533E53370020532AE27
:1001970032FF7C007D04120513ED4C7026E53345D4
:1001A70032602074E8252FF52F7403352EF52EFEC7
:1001B700AF2F7C037DE81204BEEF641E4E7004F57A
:1001C70032F533AE2EAF2F7C037DE81204BED37415
:1001D7001E9FE49E400302025EEF9423EE940050BC
:1001E70076C374289FFBE49EFA753A027D0D7F0261
:1001F700120CCCE4F530F531B2A57F017E00120C6C
:10020700E90531E53170020530C39464E530648057
:10021700948040E47F647E00120CE90533E5337077
:10022700020532AE32FF7C007D05120513ED4C70DE
:1002370026E5334532602074E8252FF52F74033502
:100247002EF52EFEAF2F7C037DE81204BEEF64244B
:100257004E7004F532F533AE2EAF2F7C037DE812D6
:1002670004BED374249FE49E506AEF9428EE940052
:100277005062C374289FFBE49EFA753A027D0D7F96
:1002870002120CCCE4F530F531B2A57F017E0012E5
:100297000CE90531E53170020530C39432E530646D
:1002A70080948040E47F327E00120CE90533E53309
:1002B70070020532AE32FF7C007D0A120513ED4C49
:1002C7007012E5334532600C74E8252FF52F74035F
:1002D700352EF52EAE2EAF2F7C037DE81204BED34C
:1002E700EF9428EE9400401F120D177BFF7A0B79CD
:1002F700277D017F01120C8B7BFF7A0B79357D01FE
:100307007F02120C8B80FE30B10302003E7F147E09
:1003170000120CE930B1FD7F147E00120CE9AF2FFB
:10032700AE2E12055F8E348F35E535252FF52FE577
:1003370034352EF52EE5354534700302003E120D97
:10034700177BFF7A0B79447D017F01120C8B7BFFB2
:100357007A0B79527D017F02120C8B7FD07E0712B8
:100367000CE9120D177BFF7A0B795A7D017F011279
:100377000C8B7BFF7A0B79357D017F02120C8B800A
:01038700FE77
:010388002252
:100A13004465667573696E6720426F6D622E2E00A2
:100A23004465667573652063616E63656C65640018
:100A3300426F6D62206578706C6F646573006166E8
:100A43007465720073002A002A2A002A2A2A002ABF
:100A53002A2A2A002A2A2A2A2A002A2A2A2A2A2A47
:100A6300002A2A2A2A2A2A2A002A2A2A2A2A2A2A37
:100A73002A002A2A2A2A2A2A2A2A2A002A2A2A2A27
:100A83002A2A2A2A2A2A002A2A2A2A2A2A2A2A2AED
:100A93002A2A002A2A2A2A2A2A2A2A2A2A2A2A0007
:100AA3002A2A2A2A2A2A2A2A2A2A2A2A2A002A2ACD
:100AB3002A2A2A2A2A2A2A2A2A2A2A2A002A2A2ABD
:100AC3002A2A2A2A2A2A2A2A2A2A2A2A002A2A2AAD
:100AD3002A2A2A2A2A2A2A2A2A2A2A2A2A00596F29
:100AE3007520646F6E2774206861766500656E6F8C
:100AF3007567682074696D6521212100476F6F64F4
:0E0B0300427965006D7920667269656E640046
:10055F00E4F536F537FCFD7BA07A8CF9F8C312056C
:10056F004950030206D1120D177BFF7A0A79137DCA
:10057F00017F01120C8BE4F536F5377FFA7E0012FE
:10058F000CE920B0557F147E00120CE930B0FD7FCE
:10059F00147E00120CE9120D177BFF7A0A79237D66
:1005AF00017F01120C8B7FE87E03120CE9120D17ED
:1005BF007BFF7A0A79337D017F01120C8B7BFF7AE7
:1005CF000A79417D017F02120C8B7BFF7A0A7947F2
:1005DF007D0F7F02120C8B020719E53660030206AE
:1005EF00B9E537B4110040030206B9900601F828A7
:1005FF00287302063402063402063C020644020641
:10060F004C02065402065C02066402066C02067473
:10061F0002067C02068402068C02069402069C02E5
:10062F0006A40206AC7BFF7A0A794980767BFF7AB3
:10063F000A794B806E7BFF7A0A794E80667BFF7A50
:10064F000A7952805E7BFF7A0A795780567BFF7A50
:10065F000A795D804E7BFF7A0A796480467BFF7A48
:10066F000A796C803E7BFF7A0A797580367BFF7A38
:10067F000A797F802E7BFF7A0A798A80267BFF7A20
:10068F000A7996801E7BFF7A0A79A380167BFF7A00
:10069F000A79B1800E7BFF7A0A79C080067BFF7AD8
:1006AF000A79D07D017F02120C8B0537E537700276
:1006BF000536D39410E53664809480500302058A82
:1006CF008048120D177BFF7A0A79E17D017F0112B5
:1006DF000C8B7BFF7A0A79F07D017F02120C8B7FE6
:1006EF00E87E03120CE9120D177BFF7A0A79FF7D62
:1006FF00017F01120C8B7BFF7A0B79077D017F0243
:10070F00120C8B7FE87E03120CE9E5376410453637
:10071F007003FEFF22AE36AF377C007DFA1204ACB9
:01072F0022A7
:03000000020D3AB4
:0C0D3A00787FE4F6D8FD75814F02073089
:10038900E709F608DFFA8046E709F208DFFA803E56
:1003990088828C83E709F0A3DFFA8032E309F60843
:1003A900DFFA8078E309F208DFFA807088828C83AB
:1003B900E309F0A3DFFA806489828A83E0A3F6085F
:1003C900DFFA805889828A83E0A3F208DFFA804C39
:1003D90080D280FA80C680D4806980F28033801010
:1003E90080A680EA809A80A880DA80E280CA803379
:1003F90089828A83ECFAE493A3C8C582C8CCC583F1
:10040900CCF0A3C8C582C8CCC583CCDFE9DEE780C0
:100419000D89828A83E493A3F608DFF9ECFAA9F03F
:10042900EDFB2289828A83ECFAE0A3C8C582C8CC95
:10043900C583CCF0A3C8C582C8CCC583CCDFEADEAE
:10044900E880DB89828A83E493A3F208DFF980CC10
:1004590088F0EF60010E4E60C388F0ED2402B40409
:100469000050B9F582EB2402B4040050AF232345B0
:0604790082239003D973F9
:10047F00BB010CE58229F582E5833AF583E0225032
:10048F0006E92582F8E622BBFE06E92582F8E2227C
:0D049F00E58229F582E5833AF583E4932296
:1004AC00EF8DF0A4A8F0CF8CF0A428CE8DF0A42E64
:0204BC00FE221E
:1004BE00BC000BBE0029EF8DF084FFADF022E4CC22
:1004CE00F875F008EF2FFFEE33FEEC33FCEE9DECEB
:1004DE00984005FCEE9DFE0FD5F0E9E4CEFD22ED31
:1004EE00F8F5F0EE8420D21CFEADF075F008EF2F7B
:1004FE00FFED33FD4007985006D5F0F222C398FD6C
:05050E000FD5F0EA2208
:10051300C2D5EC30E709B2D5E4C39DFDE49CFCEE03
:1005230030E715B2D5E4C39FFFE49EFE1204BEC3B9
:10053300E49DFDE49CFC80031204BE30D507C3E4B4
:060543009FFFE49EFE2272
:10054900EB9FF5F0EA9E42F0E99D42F0EC6480C829
:0605590064809845F022C9
:00000001FF
